{
  "_format": "hh-sol-artifact-1",
  "contractName": "SwapRouter",
  "sourceName": "contracts/wtfswap/SwapRouter.sol",
  "abi": [
    {
      "inputs": [
        {
          "internalType": "address",
          "name": "_poolManager",
          "type": "address"
        }
      ],
      "stateMutability": "nonpayable",
      "type": "constructor"
    },
    {
      "anonymous": false,
      "inputs": [
        {
          "indexed": true,
          "internalType": "address",
          "name": "sender",
          "type": "address"
        },
        {
          "indexed": false,
          "internalType": "bool",
          "name": "zeroForOne",
          "type": "bool"
        },
        {
          "indexed": false,
          "internalType": "uint256",
          "name": "amountIn",
          "type": "uint256"
        },
        {
          "indexed": false,
          "internalType": "uint256",
          "name": "amountInRemaining",
          "type": "uint256"
        },
        {
          "indexed": false,
          "internalType": "uint256",
          "name": "amountOut",
          "type": "uint256"
        }
      ],
      "name": "Swap",
      "type": "event"
    },
    {
      "inputs": [
        {
          "components": [
            {
              "internalType": "address",
              "name": "tokenIn",
              "type": "address"
            },
            {
              "internalType": "address",
              "name": "tokenOut",
              "type": "address"
            },
            {
              "internalType": "uint32[]",
              "name": "indexPath",
              "type": "uint32[]"
            },
            {
              "internalType": "address",
              "name": "recipient",
              "type": "address"
            },
            {
              "internalType": "uint256",
              "name": "deadline",
              "type": "uint256"
            },
            {
              "internalType": "uint256",
              "name": "amountIn",
              "type": "uint256"
            },
            {
              "internalType": "uint256",
              "name": "amountOutMinimum",
              "type": "uint256"
            },
            {
              "internalType": "uint160",
              "name": "sqrtPriceLimitX96",
              "type": "uint160"
            }
          ],
          "internalType": "struct ISwapRouter.ExactInputParams",
          "name": "params",
          "type": "tuple"
        }
      ],
      "name": "exactInput",
      "outputs": [
        {
          "internalType": "uint256",
          "name": "amountOut",
          "type": "uint256"
        }
      ],
      "stateMutability": "payable",
      "type": "function"
    },
    {
      "inputs": [
        {
          "components": [
            {
              "internalType": "address",
              "name": "tokenIn",
              "type": "address"
            },
            {
              "internalType": "address",
              "name": "tokenOut",
              "type": "address"
            },
            {
              "internalType": "uint32[]",
              "name": "indexPath",
              "type": "uint32[]"
            },
            {
              "internalType": "address",
              "name": "recipient",
              "type": "address"
            },
            {
              "internalType": "uint256",
              "name": "deadline",
              "type": "uint256"
            },
            {
              "internalType": "uint256",
              "name": "amountOut",
              "type": "uint256"
            },
            {
              "internalType": "uint256",
              "name": "amountInMaximum",
              "type": "uint256"
            },
            {
              "internalType": "uint160",
              "name": "sqrtPriceLimitX96",
              "type": "uint160"
            }
          ],
          "internalType": "struct ISwapRouter.ExactOutputParams",
          "name": "params",
          "type": "tuple"
        }
      ],
      "name": "exactOutput",
      "outputs": [
        {
          "internalType": "uint256",
          "name": "amountIn",
          "type": "uint256"
        }
      ],
      "stateMutability": "payable",
      "type": "function"
    },
    {
      "inputs": [],
      "name": "poolManager",
      "outputs": [
        {
          "internalType": "contract IPoolManager",
          "name": "",
          "type": "address"
        }
      ],
      "stateMutability": "view",
      "type": "function"
    },
    {
      "inputs": [
        {
          "components": [
            {
              "internalType": "address",
              "name": "tokenIn",
              "type": "address"
            },
            {
              "internalType": "address",
              "name": "tokenOut",
              "type": "address"
            },
            {
              "internalType": "uint32[]",
              "name": "indexPath",
              "type": "uint32[]"
            },
            {
              "internalType": "uint256",
              "name": "amountIn",
              "type": "uint256"
            },
            {
              "internalType": "uint160",
              "name": "sqrtPriceLimitX96",
              "type": "uint160"
            }
          ],
          "internalType": "struct ISwapRouter.QuoteExactInputParams",
          "name": "params",
          "type": "tuple"
        }
      ],
      "name": "quoteExactInput",
      "outputs": [
        {
          "internalType": "uint256",
          "name": "amountOut",
          "type": "uint256"
        }
      ],
      "stateMutability": "nonpayable",
      "type": "function"
    },
    {
      "inputs": [
        {
          "components": [
            {
              "internalType": "address",
              "name": "tokenIn",
              "type": "address"
            },
            {
              "internalType": "address",
              "name": "tokenOut",
              "type": "address"
            },
            {
              "internalType": "uint32[]",
              "name": "indexPath",
              "type": "uint32[]"
            },
            {
              "internalType": "uint256",
              "name": "amountOut",
              "type": "uint256"
            },
            {
              "internalType": "uint160",
              "name": "sqrtPriceLimitX96",
              "type": "uint160"
            }
          ],
          "internalType": "struct ISwapRouter.QuoteExactOutputParams",
          "name": "params",
          "type": "tuple"
        }
      ],
      "name": "quoteExactOutput",
      "outputs": [
        {
          "internalType": "uint256",
          "name": "amountIn",
          "type": "uint256"
        }
      ],
      "stateMutability": "nonpayable",
      "type": "function"
    },
    {
      "inputs": [
        {
          "internalType": "int256",
          "name": "amount0Delta",
          "type": "int256"
        },
        {
          "internalType": "int256",
          "name": "amount1Delta",
          "type": "int256"
        },
        {
          "internalType": "bytes",
          "name": "data",
          "type": "bytes"
        }
      ],
      "name": "swapCallback",
      "outputs": [],
      "stateMutability": "nonpayable",
      "type": "function"
    },
    {
      "inputs": [
        {
          "internalType": "contract IPool",
          "name": "pool",
          "type": "address"
        },
        {
          "internalType": "address",
          "name": "recipient",
          "type": "address"
        },
        {
          "internalType": "bool",
          "name": "zeroForOne",
          "type": "bool"
        },
        {
          "internalType": "int256",
          "name": "amountSpecified",
          "type": "int256"
        },
        {
          "internalType": "uint160",
          "name": "sqrtPriceLimitX96",
          "type": "uint160"
        },
        {
          "internalType": "bytes",
          "name": "data",
          "type": "bytes"
        }
      ],
      "name": "swapInPool",
      "outputs": [
        {
          "internalType": "int256",
          "name": "amount0",
          "type": "int256"
        },
        {
          "internalType": "int256",
          "name": "amount1",
          "type": "int256"
        }
      ],
      "stateMutability": "nonpayable",
      "type": "function"
    }
  ],
  "bytecode": "0x608060405234801561001057600080fd5b5060405161154138038061154183398101604081905261002f91610054565b600080546001600160a01b0319166001600160a01b0392909216919091179055610084565b60006020828403121561006657600080fd5b81516001600160a01b038116811461007d57600080fd5b9392505050565b6114ae806100936000396000f3fe6080604052600436106100705760003560e01c8063a8a590fd1161004e578063a8a590fd146100f0578063ae5ab5e114610103578063dc4c90d314610123578063fa483e721461015b57600080fd5b80633439aade14610075578063393dd1da146100a85780636c207ad0146100dd575b600080fd5b34801561008157600080fd5b50610095610090366004610de1565b61017d565b6040519081526020015b60405180910390f35b3480156100b457600080fd5b506100c86100c3366004610e8d565b6102bb565b6040805192835260208301919091520161009f565b6100956100eb366004610f38565b610387565b6100956100fe366004610f38565b610743565b34801561010f57600080fd5b5061009561011e366004610de1565b610aac565b34801561012f57600080fd5b50600054610143906001600160a01b031681565b6040516001600160a01b03909116815260200161009f565b34801561016757600080fd5b5061017b610176366004610f6d565b610b7a565b005b6040805161010081019091526000903090636c207ad090806101a26020870187610fc0565b6001600160a01b031681526020018560200160208101906101c39190610fc0565b6001600160a01b031681526020016101de6040870187610fe4565b808060200260200160405190810160405280939291908181526020018383602002808284376000920182905250938552505050602082015260400161022542610e10611044565b81526060808701356020830152600060408301520161024a60a0870160808801610fc0565b6001600160a01b03168152506040518263ffffffff1660e01b81526004016102729190611120565b6020604051808303816000875af1158015610291573d6000803e3d6000fd5b505050506040513d601f19601f820116820180604052508101906102b59190611133565b92915050565b600080886001600160a01b031663128acb088989898989896040518763ffffffff1660e01b81526004016102f49695949392919061114c565b60408051808303816000875af192505050801561032e575060408051601f3d908101601f1916820190925261032b918101906111a9565b60015b610375573d80801561035c576040519150601f19603f3d011682016040523d82523d6000602084013e610361565b606091505b5061036b81610d28565b925092505061037b565b90925090505b97509795505050505050565b600060a08201358161039f6040850160208601610fc0565b6001600160a01b03166103b56020860186610fc0565b6001600160a01b031610905060005b6103d16040860186610fe4565b90508110156106a457600080546001600160a01b03166371c54fc96103f96020890189610fc0565b61040960408a0160208b01610fc0565b61041660408b018b610fe4565b87818110610426576104266111cd565b905060200201602081019061043b91906111fc565b6040518463ffffffff1660e01b815260040161045993929190611217565b602060405180830381865afa158015610476573d6000803e3d6000fd5b505050506040513d601f19601f8201168201806040525081019061049a9190611240565b90506001600160a01b0381166104e85760405162461bcd60e51b815260206004820152600e60248201526d141bdbdb081b9bdd08199bdd5b9960921b60448201526064015b60405180910390fd5b8060006104f86020890189610fc0565b61050860408a0160208b01610fc0565b61051560408b018b610fe4565b87818110610525576105256111cd565b905060200201602081019061053a91906111fc565b600061054c60808d0160608e01610fc0565b6001600160a01b0316146105605733610563565b60005b604080516001600160a01b0395861660208201529385169084015263ffffffff909116606083015291909116608082015260a00160408051601f1981840301815291905290506000803063393dd1da856105c360808e0160608f01610fc0565b8a8c8f60e00160208101906105d89190610fc0565b896040518763ffffffff1660e01b81526004016105fa969594939291906112ad565b60408051808303816000875af1158015610618573d6000803e3d6000fd5b505050506040513d601f19601f8201168201806040525081019061063c91906111a9565b915091508661064b578061064d565b815b61065790896112fc565b97508661066c576106678261130f565b610675565b6106758161130f565b61067f908a611044565b9850876000036106935750505050506106a4565b5050600190930192506103c4915050565b508360c001358310156106ed5760405162461bcd60e51b815260206004820152601160248201527014db1a5c1c1859d948195e18d959591959607a1b60448201526064016104df565b60408051821515815260a086013560208201529081018390526060810184905233907f176648f1f11cda284c124490086be42a926ddf0ae887ebe7b1d6b337d89427569060800160405180910390a25050919050565b600060a08201358161075b6040850160208601610fc0565b6001600160a01b03166107716020860186610fc0565b6001600160a01b031610905060005b61078d6040860186610fe4565b9050811015610a6357600080546001600160a01b03166371c54fc96107b56020890189610fc0565b6107c560408a0160208b01610fc0565b6107d260408b018b610fe4565b878181106107e2576107e26111cd565b90506020020160208101906107f791906111fc565b6040518463ffffffff1660e01b815260040161081593929190611217565b602060405180830381865afa158015610832573d6000803e3d6000fd5b505050506040513d601f19601f820116820180604052508101906108569190611240565b90506001600160a01b03811661089f5760405162461bcd60e51b815260206004820152600e60248201526d141bdbdb081b9bdd08199bdd5b9960921b60448201526064016104df565b8060006108af6020890189610fc0565b6108bf60408a0160208b01610fc0565b6108cc60408b018b610fe4565b878181106108dc576108dc6111cd565b90506020020160208101906108f191906111fc565b600061090360808d0160608e01610fc0565b6001600160a01b031614610917573361091a565b60005b604080516001600160a01b0395861660208201529385169084015263ffffffff909116606083015291909116608082015260a00160408051601f1981840301815291905290506000803063393dd1da8561097a60808e0160608f01610fc0565b8a6109848d61130f565b8f60e00160208101906109979190610fc0565b896040518763ffffffff1660e01b81526004016109b9969594939291906112ad565b60408051808303816000875af11580156109d7573d6000803e3d6000fd5b505050506040513d601f19601f820116820180604052508101906109fb91906111a9565b9150915086610a1257610a0d8261130f565b610a1b565b610a1b8161130f565b610a2590896112fc565b975086610a325780610a34565b815b610a3e908a611044565b985087600003610a52575050505050610a63565b505060019093019250610780915050565b508360c001358311156106ed5760405162461bcd60e51b815260206004820152601160248201527014db1a5c1c1859d948195e18d959591959607a1b60448201526064016104df565b604080516101008101909152600090309063a8a590fd9080610ad16020870187610fc0565b6001600160a01b03168152602001856020016020810190610af29190610fc0565b6001600160a01b03168152602001610b0d6040870187610fe4565b8080602002602001604051908101604052809392919081815260200183836020028082843760009201829052509385525050506020820152604001610b5442610e10611044565b8152606080870135602083015260001960408301520161024a60a0870160808801610fc0565b6000808080610b8b8587018761132b565b600080546040516371c54fc960e01b81529599509397509195509350916001600160a01b03909116906371c54fc990610bcc90889088908890600401611217565b602060405180830381865afa158015610be9573d6000803e3d6000fd5b505050506040513d601f19601f82011682018060405250810190610c0d9190611240565b90506001600160a01b0381163314610c675760405162461bcd60e51b815260206004820152601760248201527f496e76616c69642063616c6c6261636b2063616c6c657200000000000000000060448201526064016104df565b6000808a13610c765788610c78565b895b90506001600160a01b038316610c99576040518a8152896020820152604081fd5b8015610d1c576040516323b872dd60e01b81526001600160a01b0384811660048301528381166024830152604482018390528716906323b872dd906064016020604051808303816000875af1158015610cf6573d6000803e3d6000fd5b505050506040513d601f19601f82011682018060405250810190610d1a9190611385565b505b50505050505050505050565b6000808251604014610dac57604483511015610d795760405162461bcd60e51b815260206004820152601060248201526f2ab732bc3832b1ba32b21032b93937b960811b60448201526064016104df565b60048301925082806020019051810190610d9391906113b8565b60405162461bcd60e51b81526004016104df9190611465565b82806020019051810190610dc091906111a9565b91509150915091565b600060a08284031215610ddb57600080fd5b50919050565b600060208284031215610df357600080fd5b813567ffffffffffffffff811115610e0a57600080fd5b610e1684828501610dc9565b949350505050565b6001600160a01b0381168114610e3357600080fd5b50565b8015158114610e3357600080fd5b60008083601f840112610e5657600080fd5b50813567ffffffffffffffff811115610e6e57600080fd5b602083019150836020828501011115610e8657600080fd5b9250929050565b600080600080600080600060c0888a031215610ea857600080fd5b8735610eb381610e1e565b96506020880135610ec381610e1e565b95506040880135610ed381610e36565b9450606088013593506080880135610eea81610e1e565b925060a088013567ffffffffffffffff811115610f0657600080fd5b610f128a828b01610e44565b989b979a50959850939692959293505050565b60006101008284031215610ddb57600080fd5b600060208284031215610f4a57600080fd5b813567ffffffffffffffff811115610f6157600080fd5b610e1684828501610f25565b60008060008060608587031215610f8357600080fd5b8435935060208501359250604085013567ffffffffffffffff811115610fa857600080fd5b610fb487828801610e44565b95989497509550505050565b600060208284031215610fd257600080fd5b8135610fdd81610e1e565b9392505050565b6000808335601e19843603018112610ffb57600080fd5b83018035915067ffffffffffffffff82111561101657600080fd5b6020019150600581901b3603821315610e8657600080fd5b634e487b7160e01b600052601160045260246000fd5b808201808211156102b5576102b561102e565b80516001600160a01b039081168352602080830151909116818401526040808301516101009185018290528051918501829052600092610120860192918101918491905b808310156110c157835163ffffffff16855293810193928101926001929092019161109b565b5050505060608301516110df60608601826001600160a01b03169052565b506080830151608085015260a083015160a085015260c083015160c085015260e083015161111860e08601826001600160a01b03169052565b509392505050565b602081526000610fdd6020830184611057565b60006020828403121561114557600080fd5b5051919050565b6001600160a01b0387811682528615156020830152604082018690528416606082015260a06080820181905281018290526000828460c0840137600060c0848401015260c0601f19601f8501168301019050979650505050505050565b600080604083850312156111bc57600080fd5b505080516020909101519092909150565b634e487b7160e01b600052603260045260246000fd5b803563ffffffff811681146111f757600080fd5b919050565b60006020828403121561120e57600080fd5b610fdd826111e3565b6001600160a01b03938416815291909216602082015263ffffffff909116604082015260600190565b60006020828403121561125257600080fd5b8151610fdd81610e1e565b60005b83811015611278578181015183820152602001611260565b50506000910152565b6000815180845261129981602086016020860161125d565b601f01601f19169290920160200192915050565b6001600160a01b03878116825286811660208301528515156040830152606082018590528316608082015260c060a082018190526000906112f090830184611281565b98975050505050505050565b818103818111156102b5576102b561102e565b6000600160ff1b82016113245761132461102e565b5060000390565b6000806000806080858703121561134157600080fd5b843561134c81610e1e565b9350602085013561135c81610e1e565b925061136a604086016111e3565b9150606085013561137a81610e1e565b939692955090935050565b60006020828403121561139757600080fd5b8151610fdd81610e36565b634e487b7160e01b600052604160045260246000fd5b6000602082840312156113ca57600080fd5b815167ffffffffffffffff808211156113e257600080fd5b818401915084601f8301126113f657600080fd5b815181811115611408576114086113a2565b604051601f8201601f19908116603f01168101908382118183101715611430576114306113a2565b8160405282815287602084870101111561144957600080fd5b61145a83602083016020880161125d565b979650505050505050565b602081526000610fdd602083018461128156fea2646970667358221220250037d030133c7f7bb953fe3ea3a55d2efec22d93c96dcc64dc217c97a7a32364736f6c63430008180033",
  "linkReferences": {},
  "deployedLinkReferences": {}
}