{
  "_format": "hh-sol-artifact-1",
  "contractName": "PoolManager",
  "sourceName": "contracts/wtfswap/PoolManager.sol",
  "abi": [
    {
      "anonymous": false,
      "inputs": [
        {
          "indexed": false,
          "internalType": "address",
          "name": "token0",
          "type": "address"
        },
        {
          "indexed": false,
          "internalType": "address",
          "name": "token1",
          "type": "address"
        },
        {
          "indexed": false,
          "internalType": "uint32",
          "name": "index",
          "type": "uint32"
        },
        {
          "indexed": false,
          "internalType": "int24",
          "name": "tickLower",
          "type": "int24"
        },
        {
          "indexed": false,
          "internalType": "int24",
          "name": "tickUpper",
          "type": "int24"
        },
        {
          "indexed": false,
          "internalType": "uint24",
          "name": "fee",
          "type": "uint24"
        },
        {
          "indexed": false,
          "internalType": "address",
          "name": "pool",
          "type": "address"
        }
      ],
      "name": "PoolCreated",
      "type": "event"
    },
    {
      "inputs": [
        {
          "components": [
            {
              "internalType": "address",
              "name": "token0",
              "type": "address"
            },
            {
              "internalType": "address",
              "name": "token1",
              "type": "address"
            },
            {
              "internalType": "uint24",
              "name": "fee",
              "type": "uint24"
            },
            {
              "internalType": "int24",
              "name": "tickLower",
              "type": "int24"
            },
            {
              "internalType": "int24",
              "name": "tickUpper",
              "type": "int24"
            },
            {
              "internalType": "uint160",
              "name": "sqrtPriceX96",
              "type": "uint160"
            }
          ],
          "internalType": "struct IPoolManager.CreateAndInitializeParams",
          "name": "params",
          "type": "tuple"
        }
      ],
      "name": "createAndInitializePoolIfNecessary",
      "outputs": [
        {
          "internalType": "address",
          "name": "poolAddress",
          "type": "address"
        }
      ],
      "stateMutability": "payable",
      "type": "function"
    },
    {
      "inputs": [
        {
          "internalType": "address",
          "name": "tokenA",
          "type": "address"
        },
        {
          "internalType": "address",
          "name": "tokenB",
          "type": "address"
        },
        {
          "internalType": "int24",
          "name": "tickLower",
          "type": "int24"
        },
        {
          "internalType": "int24",
          "name": "tickUpper",
          "type": "int24"
        },
        {
          "internalType": "uint24",
          "name": "fee",
          "type": "uint24"
        }
      ],
      "name": "createPool",
      "outputs": [
        {
          "internalType": "address",
          "name": "pool",
          "type": "address"
        }
      ],
      "stateMutability": "nonpayable",
      "type": "function"
    },
    {
      "inputs": [],
      "name": "getAllPools",
      "outputs": [
        {
          "components": [
            {
              "internalType": "address",
              "name": "pool",
              "type": "address"
            },
            {
              "internalType": "address",
              "name": "token0",
              "type": "address"
            },
            {
              "internalType": "address",
              "name": "token1",
              "type": "address"
            },
            {
              "internalType": "uint32",
              "name": "index",
              "type": "uint32"
            },
            {
              "internalType": "uint24",
              "name": "fee",
              "type": "uint24"
            },
            {
              "internalType": "uint8",
              "name": "feeProtocol",
              "type": "uint8"
            },
            {
              "internalType": "int24",
              "name": "tickLower",
              "type": "int24"
            },
            {
              "internalType": "int24",
              "name": "tickUpper",
              "type": "int24"
            },
            {
              "internalType": "int24",
              "name": "tick",
              "type": "int24"
            },
            {
              "internalType": "uint160",
              "name": "sqrtPriceX96",
              "type": "uint160"
            },
            {
              "internalType": "uint128",
              "name": "liquidity",
              "type": "uint128"
            }
          ],
          "internalType": "struct IPoolManager.PoolInfo[]",
          "name": "poolsInfo",
          "type": "tuple[]"
        }
      ],
      "stateMutability": "view",
      "type": "function"
    },
    {
      "inputs": [],
      "name": "getPairs",
      "outputs": [
        {
          "components": [
            {
              "internalType": "address",
              "name": "token0",
              "type": "address"
            },
            {
              "internalType": "address",
              "name": "token1",
              "type": "address"
            }
          ],
          "internalType": "struct IPoolManager.Pair[]",
          "name": "",
          "type": "tuple[]"
        }
      ],
      "stateMutability": "view",
      "type": "function"
    },
    {
      "inputs": [
        {
          "internalType": "address",
          "name": "tokenA",
          "type": "address"
        },
        {
          "internalType": "address",
          "name": "tokenB",
          "type": "address"
        },
        {
          "internalType": "uint32",
          "name": "index",
          "type": "uint32"
        }
      ],
      "name": "getPool",
      "outputs": [
        {
          "internalType": "address",
          "name": "",
          "type": "address"
        }
      ],
      "stateMutability": "view",
      "type": "function"
    },
    {
      "inputs": [
        {
          "internalType": "uint256",
          "name": "",
          "type": "uint256"
        }
      ],
      "name": "pairs",
      "outputs": [
        {
          "internalType": "address",
          "name": "token0",
          "type": "address"
        },
        {
          "internalType": "address",
          "name": "token1",
          "type": "address"
        }
      ],
      "stateMutability": "view",
      "type": "function"
    },
    {
      "inputs": [],
      "name": "parameters",
      "outputs": [
        {
          "internalType": "address",
          "name": "factory",
          "type": "address"
        },
        {
          "internalType": "address",
          "name": "tokenA",
          "type": "address"
        },
        {
          "internalType": "address",
          "name": "tokenB",
          "type": "address"
        },
        {
          "internalType": "int24",
          "name": "tickLower",
          "type": "int24"
        },
        {
          "internalType": "int24",
          "name": "tickUpper",
          "type": "int24"
        },
        {
          "internalType": "uint24",
          "name": "fee",
          "type": "uint24"
        }
      ],
      "stateMutability": "view",
      "type": "function"
    },
    {
      "inputs": [
        {
          "internalType": "address",
          "name": "",
          "type": "address"
        },
        {
          "internalType": "address",
          "name": "",
          "type": "address"
        },
        {
          "internalType": "uint256",
          "name": "",
          "type": "uint256"
        }
      ],
      "name": "pools",
      "outputs": [
        {
          "internalType": "address",
          "name": "",
          "type": "address"
        }
      ],
      "stateMutability": "view",
      "type": "function"
    }
  ],
  "bytecode": "0x608060405234801561001057600080fd5b506145af806100206000396000f3fe608060405260043610620000855760003560e01c806389035730116200005457806389035730146200013d578063b91ac78814620001da578063bade3d391462000220578063d88ff1f4146200023757600080fd5b80630c2d4e4e146200008a578063169c4cef14620000cc57806371c54fc914620000f1578063767eb5ef1462000116575b600080fd5b3480156200009757600080fd5b50620000af620000a936600462001553565b6200025e565b6040516001600160a01b0390911681526020015b60405180910390f35b348015620000d957600080fd5b50620000af620000eb366004620015cf565b62000718565b348015620000fe57600080fd5b50620000af6200011036600462001615565b6200075e565b3480156200012357600080fd5b506200012e6200088a565b604051620000c391906200166f565b3480156200014a57600080fd5b506001546002805460035462000191936001600160a01b03908116939281169290821691600160a01b8104820b91600160b81b8204900b90600160d01b900462ffffff1686565b604080516001600160a01b03978816815295871660208701529390951692840192909252600290810b60608401520b608082015262ffffff90911660a082015260c001620000c3565b348015620001e757600080fd5b50620001ff620001f9366004620016cd565b62000904565b604080516001600160a01b03938416815292909116602083015201620000c3565b620000af62000231366004620016e7565b6200093e565b3480156200024457600080fd5b506200024f62000de1565b604051620000c3919062001700565b6000846001600160a01b0316866001600160a01b031603620002bd5760405162461bcd60e51b81526020600482015260136024820152724944454e544943414c5f41444452455353455360681b60448201526064015b60405180910390fd5b600080620002cc8888620014d7565b6001600160a01b03808316600090815260208181526040808320938516835292815282822080548451818402810184019095528085529597509395509093919291908301828280156200034957602002820191906000526020600020905b81546001600160a01b031681526001909101906020018083116200032a575b5050505050905060005b815181101562000515576000828281518110620003745762000374620017f2565b602002602001015190508860020b816001600160a01b03166359c4f9056040518163ffffffff1660e01b8152600401602060405180830381865afa158015620003c1573d6000803e3d6000fd5b505050506040513d601f19601f82011682018060405250810190620003e7919062001808565b60020b1480156200046157508760020b816001600160a01b03166355b812a86040518163ffffffff1660e01b8152600401602060405180830381865afa15801562000436573d6000803e3d6000fd5b505050506040513d601f19601f820116820180604052508101906200045c919062001808565b60020b145b8015620004db57508662ffffff16816001600160a01b031663ddca3f436040518163ffffffff1660e01b8152600401602060405180830381865afa158015620004ae573d6000803e3d6000fd5b505050506040513d601f19601f82011682018060405250810190620004d491906200182f565b62ffffff16145b156200050b57828281518110620004f657620004f6620017f2565b6020026020010151955050505050506200070f565b5060010162000353565b506040805160c081018252308082526001600160a01b03868116602080850182905291871684860181905260028d810b60608701528c810b608087015262ffffff8c811660a0909701879052600180546001600160a01b031990811690971790558154909516909217909155600380546001600160b81b031916909117600160a01b848e16021765ffffffffffff60b81b1916600160b81b938c169390930262ffffff60d01b191692909217600160d01b9093029290921790559051600091620005ea91869186918c918c918c91016200184f565b6040516020818303038152906040528051906020012090508060405162000611906200150a565b8190604051809103906000f590508015801562000632573d6000803e3d6000fd5b506001600160a01b038581166000818152602081815260408083208986168085529083528184208054600180820183559186529484902090940180549688166001600160a01b0319978816811790915584548716909455600280549096168655600380546001600160e81b0319169055885182519586529285015263ffffffff909116838201528c840b6060840152928b900b608083015262ffffff8a1660a083015260c082015290519196507fe026b1b60fa8f2d35cd0844432a7b513a5a112d8cfe2b30bc62c1c4b81373c75919081900360e00190a1505050505b95945050505050565b600060205282600052604060002060205281600052604060002081815481106200074157600080fd5b6000918252602090912001546001600160a01b0316925083915050565b6000826001600160a01b0316846001600160a01b031603620007b95760405162461bcd60e51b81526020600482015260136024820152724944454e544943414c5f41444452455353455360681b6044820152606401620002b4565b6001600160a01b03841615801590620007da57506001600160a01b03831615155b620008175760405162461bcd60e51b815260206004820152600c60248201526b5a45524f5f4144445245535360a01b6044820152606401620002b4565b600080620008268686620014d7565b6001600160a01b0380831660009081526020818152604080832093851683529290522080549294509092509063ffffffff86169081106200086b576200086b620017f2565b6000918252602090912001546001600160a01b03169695505050505050565b60606004805480602002602001604051908101604052809291908181526020016000905b82821015620008fb576000848152602090819020604080518082019091526002850290910180546001600160a01b03908116835260019182015416828401529083529092019101620008ae565b50505050905090565b600481815481106200091557600080fd5b6000918252602090912060029091020180546001909101546001600160a01b0391821692501682565b600062000952604083016020840162001888565b6001600160a01b03166200096a602084018462001888565b6001600160a01b031610620009c25760405162461bcd60e51b815260206004820152601f60248201527f746f6b656e30206d757374206265206c657373207468616e20746f6b656e31006044820152606401620002b4565b30630c2d4e4e620009d7602085018562001888565b620009e9604086016020870162001888565b620009fb6080870160608801620018a8565b62000a0d60a0880160808901620018a8565b62000a1f6060890160408a01620018c8565b6040518663ffffffff1660e01b815260040162000a419594939291906200184f565b6020604051808303816000875af115801562000a61573d6000803e3d6000fd5b505050506040513d601f19601f8201168201806040525081019062000a879190620018e8565b905060008190506000806000836001600160a01b0316630dfe16816040518163ffffffff1660e01b8152600401602060405180830381865afa15801562000ad2573d6000803e3d6000fd5b505050506040513d601f19601f8201168201806040525081019062000af89190620018e8565b6001600160a01b03166001600160a01b031681526020019081526020016000206000836001600160a01b031663d21220a76040518163ffffffff1660e01b8152600401602060405180830381865afa15801562000b59573d6000803e3d6000fd5b505050506040513d601f19601f8201168201806040525081019062000b7f9190620018e8565b6001600160a01b03166001600160a01b03168152602001908152602001600020805490509050816001600160a01b0316638db791d26040518163ffffffff1660e01b8152600401602060405180830381865afa15801562000be4573d6000803e3d6000fd5b505050506040513d601f19601f8201168201806040525081019062000c0a9190620018e8565b6001600160a01b031660000362000dda576001600160a01b03821663f637731d62000c3c60c0870160a0880162001888565b6040516001600160e01b031960e084901b1681526001600160a01b039091166004820152602401600060405180830381600087803b15801562000c7e57600080fd5b505af115801562000c93573d6000803e3d6000fd5b505050508060010362000dda5760046040518060400160405280846001600160a01b0316630dfe16816040518163ffffffff1660e01b8152600401602060405180830381865afa15801562000cec573d6000803e3d6000fd5b505050506040513d601f19601f8201168201806040525081019062000d129190620018e8565b6001600160a01b03168152602001846001600160a01b031663d21220a76040518163ffffffff1660e01b8152600401602060405180830381865afa15801562000d5f573d6000803e3d6000fd5b505050506040513d601f19601f8201168201806040525081019062000d859190620018e8565b6001600160a01b039081169091528254600180820185556000948552602094859020845160029093020180546001600160a01b0319908116938516939093178155939094015192909301805490931691161790555b5050919050565b60606000805b60045463ffffffff8216101562000eb15760008060048363ffffffff168154811062000e175762000e17620017f2565b600091825260208083206002909202909101546001600160a01b0316835282019290925260400181206004805491929163ffffffff851690811062000e605762000e60620017f2565b60009182526020808320600160029093020191909101546001600160a01b0316835282019290925260400190205462000e9a90836200191e565b91508062000ea88162001945565b91505062000de7565b508063ffffffff1667ffffffffffffffff81111562000ed45762000ed46200196b565b60405190808252806020026020018201604052801562000f5d57816020015b604080516101608101825260008082526020808301829052928201819052606082018190526080820181905260a0820181905260c0820181905260e0820181905261010082018190526101208201819052610140820152825260001990920191018162000ef35790505b50915060005b60045463ffffffff82161015620014d257600080600060048463ffffffff168154811062000f955762000f95620017f2565b600091825260208083206002909202909101546001600160a01b0316835282019290925260400181206004805491929163ffffffff861690811062000fde5762000fde620017f2565b60009182526020808320600160029093020191909101546001600160a01b031683528281019390935260409182019020805482518185028101850190935280835291929091908301828280156200105f57602002820191906000526020600020905b81546001600160a01b0316815260019091019060200180831162001040575b5050505050905060005b81518163ffffffff161015620014ba576000828263ffffffff1681518110620010965762001096620017f2565b60200260200101519050604051806101600160405280848463ffffffff1681518110620010c757620010c7620017f2565b60200260200101516001600160a01b03168152602001826001600160a01b0316630dfe16816040518163ffffffff1660e01b8152600401602060405180830381865afa1580156200111c573d6000803e3d6000fd5b505050506040513d601f19601f82011682018060405250810190620011429190620018e8565b6001600160a01b03168152602001826001600160a01b031663d21220a76040518163ffffffff1660e01b8152600401602060405180830381865afa1580156200118f573d6000803e3d6000fd5b505050506040513d601f19601f82011682018060405250810190620011b59190620018e8565b6001600160a01b031681526020018363ffffffff168152602001826001600160a01b031663ddca3f436040518163ffffffff1660e01b8152600401602060405180830381865afa1580156200120e573d6000803e3d6000fd5b505050506040513d601f19601f820116820180604052508101906200123491906200182f565b62ffffff168152602001600060ff168152602001826001600160a01b03166359c4f9056040518163ffffffff1660e01b8152600401602060405180830381865afa15801562001287573d6000803e3d6000fd5b505050506040513d601f19601f82011682018060405250810190620012ad919062001808565b60020b8152602001826001600160a01b03166355b812a86040518163ffffffff1660e01b8152600401602060405180830381865afa158015620012f4573d6000803e3d6000fd5b505050506040513d601f19601f820116820180604052508101906200131a919062001808565b60020b8152602001826001600160a01b0316633eaf5d9f6040518163ffffffff1660e01b8152600401602060405180830381865afa15801562001361573d6000803e3d6000fd5b505050506040513d601f19601f8201168201806040525081019062001387919062001808565b60020b8152602001826001600160a01b0316638db791d26040518163ffffffff1660e01b8152600401602060405180830381865afa158015620013ce573d6000803e3d6000fd5b505050506040513d601f19601f82011682018060405250810190620013f49190620018e8565b6001600160a01b03168152602001826001600160a01b0316631a6865026040518163ffffffff1660e01b8152600401602060405180830381865afa15801562001441573d6000803e3d6000fd5b505050506040513d601f19601f8201168201806040525081019062001467919062001981565b6001600160801b03169052866200147f84876200191e565b63ffffffff1681518110620014985762001498620017f2565b6020026020010181905250508080620014b19062001945565b91505062001069565b50508080620014c99062001945565b91505062000f63565b505090565b600080826001600160a01b0316846001600160a01b031610620014fc578284620014ff565b83835b915091509250929050565b612bcd80620019ad83390190565b6001600160a01b03811681146200152e57600080fd5b50565b8060020b81146200152e57600080fd5b62ffffff811681146200152e57600080fd5b600080600080600060a086880312156200156c57600080fd5b8535620015798162001518565b945060208601356200158b8162001518565b935060408601356200159d8162001531565b92506060860135620015af8162001531565b91506080860135620015c18162001541565b809150509295509295909350565b600080600060608486031215620015e557600080fd5b8335620015f28162001518565b92506020840135620016048162001518565b929592945050506040919091013590565b6000806000606084860312156200162b57600080fd5b8335620016388162001518565b925060208401356200164a8162001518565b9150604084013563ffffffff811681146200166457600080fd5b809150509250925092565b602080825282518282018190526000919060409081850190868401855b82811015620016c057815180516001600160a01b03908116865290870151168685015292840192908501906001016200168c565b5091979650505050505050565b600060208284031215620016e057600080fd5b5035919050565b600060c08284031215620016fa57600080fd5b50919050565b602080825282518282018190526000919060409081850190868401855b82811015620016c057815180516001600160a01b0390811686528782015181168887015286820151168686015260608082015163ffffffff169086015260808082015162ffffff169086015260a08082015160ff169086015260c080820151600281900b82880152505060e0808201516200179c8288018260020b9052565b505061010080820151620017b48288018260020b9052565b5050610120818101516001600160a01b031690860152610140908101516001600160801b03169085015261016090930192908501906001016200171d565b634e487b7160e01b600052603260045260246000fd5b6000602082840312156200181b57600080fd5b8151620018288162001531565b9392505050565b6000602082840312156200184257600080fd5b8151620018288162001541565b6001600160a01b039586168152939094166020840152600291820b6040840152900b606082015262ffffff909116608082015260a00190565b6000602082840312156200189b57600080fd5b8135620018288162001518565b600060208284031215620018bb57600080fd5b8135620018288162001531565b600060208284031215620018db57600080fd5b8135620018288162001541565b600060208284031215620018fb57600080fd5b8151620018288162001518565b634e487b7160e01b600052601160045260246000fd5b63ffffffff8181168382160190808211156200193e576200193e62001908565b5092915050565b600063ffffffff80831681810362001961576200196162001908565b6001019392505050565b634e487b7160e01b600052604160045260246000fd5b6000602082840312156200199457600080fd5b81516001600160801b03811681146200182857600080fdfe6101406040523480156200001257600080fd5b50336001600160a01b031663890357306040518163ffffffff1660e01b815260040160c060405180830381865afa15801562000052573d6000803e3d6000fd5b505050506040513d601f19601f82011682018060405250810190620000789190620000dc565b62ffffff1660e052600290810b610120520b610100526001600160a01b0390811660c05290811660a0521660805262000168565b80516001600160a01b0381168114620000c457600080fd5b919050565b8051600281900b8114620000c457600080fd5b60008060008060008060c08789031215620000f657600080fd5b6200010187620000ac565b95506200011160208801620000ac565b94506200012160408801620000ac565b93506200013160608801620000c9565b92506200014160808801620000c9565b915060a087015162ffffff811681146200015a57600080fd5b809150509295509295509295565b60805160a05160c05160e05161010051610120516129ba6200021360003960008181610280015281816105cf015281816111490152611cfb01526000818161032c015281816105a2015281816111110152611d3301526000818161040d01526106670152600081816103e6015281816108da01528181610bd50152611cb1015260008181610120015281816109ca01528181610b4e0152611a98015260006103bf01526129ba6000f3fe608060405234801561001057600080fd5b50600436106101165760003560e01c806360d49d53116100a2578063c45a015511610071578063c45a0155146103ba578063d21220a7146103e1578063ddca3f4314610408578063f305839914610443578063f637731d1461044c57600080fd5b806360d49d531461034e5780638db791d21461038157806390bc16931461039457806392f026ad146103a757600080fd5b80633eaf5d9f116100e95780633eaf5d9f1461023d578063461413191461026457806355b812a81461027b57806355f57510146102a257806359c4f9051461032757600080fd5b80630dfe16811461011b578063128acb081461015f57806316c19739146101875780631a68650214610212575b600080fd5b6101427f000000000000000000000000000000000000000000000000000000000000000081565b6040516001600160a01b0390911681526020015b60405180910390f35b61017261016d3660046125af565b610461565b60408051928352602083019190915201610156565b6101dc610195366004612634565b6001600160a01b031660009081526004602052604090208054600282015460038301546001909301546001600160801b0380841695929493600160801b9004811692911690565b604080516001600160801b039687168152602081019590955284019290925283166060830152909116608082015260a001610156565b600154610225906001600160801b031681565b6040516001600160801b039091168152602001610156565b60005461025190600160a01b900460020b81565b60405160029190910b8152602001610156565b61026d60035481565b604051908152602001610156565b6102517f000000000000000000000000000000000000000000000000000000000000000081565b6102ee6102b0366004612634565b60046020526000908152604090208054600182015460028301546003909301546001600160801b0380841694600160801b9094048116939216919085565b604080516001600160801b039687168152948616602086015292909416918301919091526060820152608081019190915260a001610156565b6102517f000000000000000000000000000000000000000000000000000000000000000081565b61036161035c366004612668565b610a79565b604080516001600160801b03938416815292909116602083015201610156565b600054610142906001600160a01b031681565b6101726103a23660046126ad565b610c62565b6101726103b53660046126c8565b610e7f565b6101427f000000000000000000000000000000000000000000000000000000000000000081565b6101427f000000000000000000000000000000000000000000000000000000000000000081565b61042f7f000000000000000000000000000000000000000000000000000000000000000081565b60405162ffffff9091168152602001610156565b61026d60025481565b61045f61045a366004612634565b61109e565b005b6000808560000361049e5760405162461bcd60e51b8152602060048201526002602482015261415360f01b60448201526064015b60405180910390fd5b866104e2576000546001600160a01b039081169086161180156104dd575073fffd8963efd1fc6a506488495d951d5263988d266001600160a01b038616105b61050d565b6000546001600160a01b0390811690861610801561050d57506401000276a36001600160a01b038616115b61053f5760405162461bcd60e51b815260206004820152600360248201526214d41360ea1b6044820152606401610495565b6040805160e08101825287815260006020820181905280546001600160a01b0316928201929092528188139190606081018a61057d57600354610581565b6002545b815260200160008152602001600081526020016000815250905060006105c67f0000000000000000000000000000000000000000000000000000000000000000611217565b905060006105f37f0000000000000000000000000000000000000000000000000000000000000000611217565b905060008b6106025781610604565b825b60005490915061068b906001600160a01b03168d610636578b6001600160a01b0316836001600160a01b03161161064c565b8b6001600160a01b0316836001600160a01b0316105b6106565782610658565b8b5b6001546001600160801b03168e7f00000000000000000000000000000000000000000000000000000000000000006114d2565b60c088015260a087015260808601526001600160a01b031660408501819052600080546001600160a01b031916821790556106c5906116ed565b6000805462ffffff92909216600160a01b0262ffffff60a01b1990921691909117905560c08401516001546107099190600160801b906001600160801b031661197f565b8460600181815161071a9190612741565b9052508b15610730576060840151600255610739565b60608401516003555b84156107945761075b8460c0015185608001516107569190612741565b611a22565b8451859061076a908390612754565b90525060a084015161078a9061077f90611a22565b602086015190611a38565b60208501526107e0565b6107a18460a00151611a22565b845185906107b090839061277b565b90525060c084015160808501516107da916107cf916107569190612741565b602086015190611a5e565b60208501525b8415158c15151461080157602084015184516107fc908d612754565b610813565b835161080d908c612754565b84602001515b90975095508b1561090e576000610828611a7e565b604051637d241f3960e11b8152909150339063fa483e7290610854908b908b908f908f906004016127cc565b600060405180830381600087803b15801561086e57600080fd5b505af1158015610882573d6000803e3d6000fd5b5050505061088e611a7e565b610898828a611b7c565b11156108cc5760405162461bcd60e51b815260206004820152600360248201526249494160e81b6044820152606401610495565b6000871215610908576109087f00000000000000000000000000000000000000000000000000000000000000008f6109038a6127f6565b611b97565b506109f5565b6000610918611c97565b604051637d241f3960e11b8152909150339063fa483e7290610944908b908b908f908f906004016127cc565b600060405180830381600087803b15801561095e57600080fd5b505af1158015610972573d6000803e3d6000fd5b5050505061097e611c97565b6109888289611b7c565b11156109bc5760405162461bcd60e51b815260206004820152600360248201526249494160e81b6044820152606401610495565b60008812156109f3576109f37f00000000000000000000000000000000000000000000000000000000000000008f6109038b6127f6565b505b600054600154604080518a8152602081018a90526001600160a01b03808516828401526001600160801b039093166060820152600160a01b90930460020b608084015251908f169133917fc42079f94a6350d7e6235f29174924f928cc2ac818eb64fed8004e115fbcca679181900360a00190a35050505050965096945050505050565b33600090815260046020526040812080548291906001600160801b03600160801b909104811690861611610aad5784610ac0565b8054600160801b90046001600160801b03165b60018201549093506001600160801b0390811690851611610ae15783610af0565b60018101546001600160801b03165b91506001600160801b03831615610b7d57805483908290601090610b25908490600160801b90046001600160801b0316612812565b92506101000a8154816001600160801b0302191690836001600160801b03160217905550610b7d7f000000000000000000000000000000000000000000000000000000000000000087856001600160801b0316611b97565b6001600160801b03821615610c0457600181018054839190600090610bac9084906001600160801b0316612812565b92506101000a8154816001600160801b0302191690836001600160801b03160217905550610c047f000000000000000000000000000000000000000000000000000000000000000087846001600160801b0316611b97565b604080516001600160a01b03881681526001600160801b038581166020830152841681830152905133917f38c069c2e9bc192f8cf4f1b85be791ccc0d04bb12c4ca71a3fbfe96ea0932dd5919081900360600190a250935093915050565b6000806000836001600160801b031611610cc95760405162461bcd60e51b815260206004820152602260248201527f4275726e20616d6f756e74206d7573742062652067726561746572207468616e604482015261020360f41b6064820152608401610495565b336000908152600460205260409020546001600160801b039081169084161115610d355760405162461bcd60e51b815260206004820152601d60248201527f4275726e20616d6f756e742065786365656473206c69717569646974790000006044820152606401610495565b600080610d696040518060400160405280336001600160a01b0316815260200187610d5f90612832565b600f0b9052611ce3565b9150915081610d77906127f6565b9350610d82816127f6565b92506000841180610d935750600083115b15610e2c5733600090815260046020526040902054610dc3908590600160801b90046001600160801b0316612861565b33600090815260046020526040902060010154610dea9085906001600160801b0316612861565b3360009081526004602052604090206001810180546001600160801b0319166001600160801b0393841617905580548216600160801b93909216929092021790555b604080516001600160801b03871681526020810186905290810184905233907fd4885a46e0c2f00ffdf2adb97a3909fd129dc1acccead462f7e29e6f18e54ec19060600160405180910390a25050915091565b6000806000856001600160801b031611610ee65760405162461bcd60e51b815260206004820152602260248201527f4d696e7420616d6f756e74206d7573742062652067726561746572207468616e604482015261020360f41b6064820152608401610495565b600080610f1260405180604001604052808a6001600160a01b0316815260200189600f0b815250611ce3565b90945092508391508290506000808315610f3157610f2e611a7e565b91505b8415610f4257610f3f611c97565b90505b604051639f382e9b60e01b81523390639f382e9b90610f6b90899089908d908d906004016127cc565b600060405180830381600087803b158015610f8557600080fd5b505af1158015610f99573d6000803e3d6000fd5b505050506000861115610feb57610fae611a7e565b610fb88388611b7c565b1115610feb5760405162461bcd60e51b815260206004820152600260248201526104d360f41b6044820152606401610495565b841561103657610ff9611c97565b6110038287611b7c565b11156110365760405162461bcd60e51b81526020600482015260026024820152614d3160f01b6044820152606401610495565b604080513381526001600160801b038b166020820152908101879052606081018690526001600160a01b038b16907f011d4be6213866bff035f68967364cf69c5c01ff5bc23ff0a275f08a04381e6a9060800160405180910390a25050505094509492505050565b6000546001600160a01b0316156110e55760405162461bcd60e51b815260206004820152600b60248201526a125392551250531256915160aa1b6044820152606401610495565b6110ee816116ed565b6000805462ffffff60a01b1916600160a01b62ffffff93909316830217908190557f0000000000000000000000000000000000000000000000000000000000000000600290810b92909104900b1280159061117957506000547f0000000000000000000000000000000000000000000000000000000000000000600290810b600160a01b909204900b125b6111f55760405162461bcd60e51b815260206004820152604160248201527f7371727450726963655839362073686f756c642062652077697468696e20746860448201527f652072616e6765206f66205b7469636b4c6f7765722c207469636b55707065726064820152602960f81b608482015260a401610495565b600080546001600160a01b0319166001600160a01b0392909216919091179055565b60020b600060ff82901d80830118620d89e8811115611241576112416345c3193d60e11b84611f22565b7001fffcb933bd6fad37aa2d162d1a5940016001821602600160801b18600282161561127d576ffff97272373d413259a46990580e213a0260801c5b600482161561129c576ffff2e50f5f656932ef12357cf3c7fdcc0260801c5b60088216156112bb576fffe5caca7e10e4e61c3624eaa0941cd00260801c5b60108216156112da576fffcb9843d60f6159c9db58835c9266440260801c5b60208216156112f9576fff973b41fa98c081472e6896dfb254c00260801c5b6040821615611318576fff2ea16466c96a3843ec78b326b528610260801c5b6080821615611337576ffe5dee046a99a2a811c461f1969c30530260801c5b610100821615611357576ffcbe86c7900a88aedcffc83b479aa3a40260801c5b610200821615611377576ff987a7253ac413176f2b074cf7815e540260801c5b610400821615611397576ff3392b0822b70005940c7a398e4b70f30260801c5b6108008216156113b7576fe7159475a2c29b7443b29c7fa6e889d90260801c5b6110008216156113d7576fd097f3bdfd2022b8845ad8f792aa58250260801c5b6120008216156113f7576fa9f746462d870fdf8a65dc1f90e061e50260801c5b614000821615611417576f70d869a156d2a1b890bb3df62baf32f70260801c5b618000821615611437576f31be135f97d08fd981231505542fcfa60260801c5b62010000821615611458576f09aa508b5b7a84e1c677de54f3e99bc90260801c5b62020000821615611478576e5d6af8dedb81196699c329225ee6040260801c5b62040000821615611497576d2216e584f5fa1ea926041bedfe980260801c5b620800008216156114b4576b048a170391f7dc42444e8fa20260801c5b60008413156114c257600019045b63ffffffff0160201c9392505050565b60008080806001600160a01b03808916908a16101581871280159061155e576000611512896115048a620f4240612881565b62ffffff16620f424061197f565b90508261152b576115268c8c8c6001611f33565b611538565b6115388b8d8c6001611fbc565b9550858110611549578a9650611558565b6115558c8b8386612083565b96505b506115b2565b81611575576115708b8b8b6000611fbc565b611582565b6115828a8c8b6000611f33565b93508361158e896127f6565b1061159b578995506115b2565b6115af8b8a6115a98b6127f6565b856120cf565b95505b6001600160a01b038a8116908716148215611615578080156115d15750815b6115e7576115e2878d8c6001611fbc565b6115e9565b855b95508080156115f6575081155b61160c57611607878d8c6000611f33565b61160e565b845b945061165f565b80801561161f5750815b611635576116308c888c6001611f33565b611637565b855b9550808015611644575081155b61165a576116558c888c6000611fbc565b61165c565b845b94505b811580156116745750611671896127f6565b85115b1561168557611682896127f6565b94505b8180156116a457508a6001600160a01b0316876001600160a01b031614155b156116ba576116b3868a61289d565b93506116de565b6116db8662ffffff8a166116d18b620f4240612881565b62ffffff1661211b565b93505b50505095509550955095915050565b600073fffd8963efd1fc6a506488495d951d51639616826401000276a21983016001600160a01b0316111561172d5761172d6318521d4960e21b8361214d565b640100000000600160c01b03602083901b1680600061174b82612164565b60ff1690506080811061176657607f810383901c9150611770565b80607f0383901b91505b908002607f81811c60ff83811c9190911c800280831c81831c1c800280841c81841c1c800280851c81851c1c800280861c81861c1c800280871c81871c1c800280881c81881c1c800280891c81891c1c8002808a1c818a1c1c8002808b1c818b1c1c8002808c1c818c1c1c8002808d1c818d1c1c8002808e1c9c81901c9c909c1c80029c8d901c9e9d607f198f0160401b60c09190911c678000000000000000161760c19b909b1c674000000000000000169a909a1760c29990991c672000000000000000169890981760c39790971c671000000000000000169690961760c49590951c670800000000000000169490941760c59390931c670400000000000000169290921760c69190911c670200000000000000161760c79190911c670100000000000000161760c89190911c6680000000000000161760c99190911c6640000000000000161760ca9190911c6620000000000000161760cb9190911c6610000000000000161760cc9190911c6608000000000000161760cd9190911c66040000000000001617693627a301d71055774c8581026f028f6481ab7f045a5af012a19d003aa9198101608090811d906fdb2df09e81959a81455e260799a0632f8301901d600281810b9083900b1461197057886001600160a01b031661195582611217565b6001600160a01b0316111561196a5781611972565b80611972565b815b9998505050505050505050565b600083830281600019858709828110838203039150508084116119a157600080fd5b806000036119b457508290049050611a1b565b6000848688096000868103871696879004966002600389028118808a02820302808a02820302808a02820302808a02820302808a02820302808a02909103029181900381900460010186841190950394909402919094039290920491909117919091029150505b9392505050565b6000600160ff1b8210611a3457600080fd5b5090565b60008082121583611a498482612754565b925082131514611a5857600080fd5b92915050565b60008082121583611a6f848261277b565b925082121514611a5857600080fd5b604051306024820152600090819081906001600160a01b037f000000000000000000000000000000000000000000000000000000000000000016906370a0823160e01b906044015b60408051601f198184030181529181526020820180516001600160e01b03166001600160e01b0319909416939093179092529051611b0491906128b0565b600060405180830381855afa9150503d8060008114611b3f576040519150601f19603f3d011682016040523d82523d6000602084013e611b44565b606091505b5091509150818015611b5857506020815110155b611b6157600080fd5b80806020019051810190611b7591906128df565b9250505090565b600082611b898382612741565b9150811015611a5857600080fd5b604080516001600160a01b038481166024830152604480830185905283518084039091018152606490920183526020820180516001600160e01b031663a9059cbb60e01b1790529151600092839290871691611bf391906128b0565b6000604051808303816000865af19150503d8060008114611c30576040519150601f19603f3d011682016040523d82523d6000602084013e611c35565b606091505b5091509150818015611c5f575080511580611c5f575080806020019051810190611c5f91906128f8565b611c905760405162461bcd60e51b81526020600482015260026024820152612a2360f11b6044820152606401610495565b5050505050565b604051306024820152600090819081906001600160a01b037f000000000000000000000000000000000000000000000000000000000000000016906370a0823160e01b90604401611ac6565b600080548190611d29906001600160a01b0316611d1f7f0000000000000000000000000000000000000000000000000000000000000000611217565b85602001516121f1565b9150611d70611d577f0000000000000000000000000000000000000000000000000000000000000000611217565b60005460208601516001600160a01b0390911690612233565b83516001600160a01b0316600090815260046020526040812060028082015490549394509092611db891611da39161289d565b83546001600160801b0316600160801b61197f565b90506000611de68360030154600354611dd1919061289d565b84546001600160801b0316600160801b61197f565b6002805490850155600380549085015590506001600160801b038216151580611e1857506000816001600160801b0316115b15611eb057825482908490601090611e41908490600160801b90046001600160801b0316612861565b92506101000a8154816001600160801b0302191690836001600160801b03160217905550808360010160008282829054906101000a90046001600160801b0316611e8b9190612861565b92506101000a8154816001600160801b0302191690836001600160801b031602179055505b6001546020870151611ecb916001600160801b031690612267565b600180546001600160801b0319166001600160801b0392831617905583546020880151611efc929190911690612267565b83546001600160801b0319166001600160801b0391909116179092555091939092509050565b816000528060020b60045260246000fd5b6000836001600160a01b0316856001600160a01b03161115611f53579293925b81611f8757611f826001600160801b038416611f6f8787612915565b6001600160a01b0316600160601b61197f565b611fb1565b611fb16001600160801b038416611f9e8787612915565b6001600160a01b0316600160601b61211b565b90505b949350505050565b6000836001600160a01b0316856001600160a01b03161115611fdc579293925b600160601b600160e01b03606084901b166000611ff98787612915565b6001600160a01b031690506000876001600160a01b03161161201a57600080fd5b8361204c57866001600160a01b031661203d8383896001600160a01b031661197f565b612047919061294b565b612078565b6120786120638383896001600160a01b031661211b565b886001600160a01b0316808204910615150190565b979650505050505050565b600080856001600160a01b03161161209a57600080fd5b6000846001600160801b0316116120b057600080fd5b816120c257611f828585856001612327565b611fb1858585600161240e565b600080856001600160a01b0316116120e657600080fd5b6000846001600160801b0316116120fc57600080fd5b8161210e57611f82858585600061240e565b611fb18585856000612327565b600061212884848461197f565b9050818061213857612138612935565b83850915611a1b5760010180611a1b57600080fd5b816000526001600160a01b03811660045260246000fd5b600080821161217257600080fd5b507f0706060506020500060203020504000106050205030304010505030400000000601f6f8421084210842108cc6318c6db6d54be6001600160801b03841160071b84811c67ffffffffffffffff1060061b1784811c63ffffffff1060051b1784811c61ffff1060041b1784811c60ff1060031b1793841c1c161a1790565b60008082600f0b126122125761220d6107568585856001611fbc565b611fb4565b61222a610756858561222386612832565b6000611fbc565b611fb4906127f6565b60008082600f0b1261224f5761220d6107568585856001611f33565b61222a610756858561226086612832565b6000611f33565b60008082600f0b12156122d4576001600160801b03831661228783612832565b6122919085612812565b9150816001600160801b0316106122cf5760405162461bcd60e51b81526020600482015260026024820152614c5360f01b6044820152606401610495565b611a58565b6001600160801b0383166122e88385612861565b9150816001600160801b03161015611a585760405162461bcd60e51b81526020600482015260026024820152614c4160f01b6044820152606401610495565b600081156123995760006001600160a01b0384111561235d5761235884600160601b876001600160801b031661197f565b612374565b6123746001600160801b038616606086901b61294b565b905061239161238c6001600160a01b03881683611b7c565b612525565b915050611fb4565b60006001600160a01b038411156123c7576123c284600160601b876001600160801b031661211b565b6123e4565b6123e4606085901b6001600160801b038716808204910615150190565b905080866001600160a01b0316116123fb57600080fd5b612391816001600160a01b03881661289d565b60008260000361241f575083611fb4565b600160601b600160e01b03606085901b1682156124c85760006001600160a01b0387168561244d828261296d565b9250612459908361294b565b0361249357600061246a8284612741565b90508281106124915761248783896001600160a01b03168361211b565b9350505050611fb4565b505b6124bf826124b4876124ae6001600160a01b038c168461294b565b90611b7c565b808204910615150190565b92505050611fb4565b60006001600160a01b038716856124df828261296d565b92506124eb908361294b565b1480156124f757508082115b61250057600080fd5b600061250c828461289d565b905061248761238c848a6001600160a01b03168461211b565b806001600160a01b038116811461253b57600080fd5b919050565b6001600160a01b038116811461255557600080fd5b50565b801515811461255557600080fd5b60008083601f84011261257857600080fd5b50813567ffffffffffffffff81111561259057600080fd5b6020830191508360208285010111156125a857600080fd5b9250929050565b60008060008060008060a087890312156125c857600080fd5b86356125d381612540565b955060208701356125e381612558565b94506040870135935060608701356125fa81612540565b9250608087013567ffffffffffffffff81111561261657600080fd5b61262289828a01612566565b979a9699509497509295939492505050565b60006020828403121561264657600080fd5b8135611a1b81612540565b80356001600160801b038116811461253b57600080fd5b60008060006060848603121561267d57600080fd5b833561268881612540565b925061269660208501612651565b91506126a460408501612651565b90509250925092565b6000602082840312156126bf57600080fd5b611a1b82612651565b600080600080606085870312156126de57600080fd5b84356126e981612540565b93506126f760208601612651565b9250604085013567ffffffffffffffff81111561271357600080fd5b61271f87828801612566565b95989497509550505050565b634e487b7160e01b600052601160045260246000fd5b80820180821115611a5857611a5861272b565b81810360008312801583831316838312821617156127745761277461272b565b5092915050565b808201828112600083128015821682158216171561279b5761279b61272b565b505092915050565b81835281816020850137506000828201602090810191909152601f909101601f19169091010190565b8481528360208201526060604082015260006127ec6060830184866127a3565b9695505050505050565b6000600160ff1b820161280b5761280b61272b565b5060000390565b6001600160801b038281168282160390808211156127745761277461272b565b600081600f0b6f7fffffffffffffffffffffffffffffff1981036128585761285861272b565b60000392915050565b6001600160801b038181168382160190808211156127745761277461272b565b62ffffff8281168282160390808211156127745761277461272b565b81810381811115611a5857611a5861272b565b6000825160005b818110156128d157602081860181015185830152016128b7565b506000920191825250919050565b6000602082840312156128f157600080fd5b5051919050565b60006020828403121561290a57600080fd5b8151611a1b81612558565b6001600160a01b038281168282160390808211156127745761277461272b565b634e487b7160e01b600052601260045260246000fd5b60008261296857634e487b7160e01b600052601260045260246000fd5b500490565b8082028115828204841417611a5857611a5861272b56fea264697066735822122069548f2aa9a7a9721285478183081296063de7deb733088f38ef2c17a4b7321064736f6c63430008180033a2646970667358221220b6ce4518836a71c95cd7be098fdc2a9c9a705c43250ee19a9c3cf958cb87d7cb64736f6c63430008180033",
  "linkReferences": {},
  "deployedLinkReferences": {}
}